{
  "address": "0x60ab9736cb8589Ea8390472627713F2Cc830e017",
  "abi": [
    {
      "inputs": [
        {
          "internalType": "string",
          "name": "_name",
          "type": "string"
        },
        {
          "internalType": "string",
          "name": "_symbol",
          "type": "string"
        }
      ],
      "stateMutability": "nonpayable",
      "type": "constructor"
    },
    {
      "anonymous": false,
      "inputs": [
        {
          "indexed": true,
          "internalType": "address",
          "name": "owner",
          "type": "address"
        },
        {
          "indexed": true,
          "internalType": "address",
          "name": "approved",
          "type": "address"
        },
        {
          "indexed": true,
          "internalType": "uint256",
          "name": "tokenId",
          "type": "uint256"
        }
      ],
      "name": "Approval",
      "type": "event"
    },
    {
      "anonymous": false,
      "inputs": [
        {
          "indexed": true,
          "internalType": "address",
          "name": "owner",
          "type": "address"
        },
        {
          "indexed": true,
          "internalType": "address",
          "name": "operator",
          "type": "address"
        },
        {
          "indexed": false,
          "internalType": "bool",
          "name": "approved",
          "type": "bool"
        }
      ],
      "name": "ApprovalForAll",
      "type": "event"
    },
    {
      "anonymous": false,
      "inputs": [
        {
          "indexed": true,
          "internalType": "address",
          "name": "previousOwner",
          "type": "address"
        },
        {
          "indexed": true,
          "internalType": "address",
          "name": "newOwner",
          "type": "address"
        }
      ],
      "name": "OwnershipTransferred",
      "type": "event"
    },
    {
      "anonymous": false,
      "inputs": [
        {
          "indexed": true,
          "internalType": "address",
          "name": "from",
          "type": "address"
        },
        {
          "indexed": true,
          "internalType": "address",
          "name": "to",
          "type": "address"
        },
        {
          "indexed": true,
          "internalType": "uint256",
          "name": "tokenId",
          "type": "uint256"
        }
      ],
      "name": "Transfer",
      "type": "event"
    },
    {
      "inputs": [
        {
          "internalType": "address",
          "name": "to",
          "type": "address"
        },
        {
          "internalType": "uint256",
          "name": "tokenId",
          "type": "uint256"
        }
      ],
      "name": "approve",
      "outputs": [],
      "stateMutability": "nonpayable",
      "type": "function"
    },
    {
      "inputs": [
        {
          "internalType": "address",
          "name": "owner",
          "type": "address"
        }
      ],
      "name": "balanceOf",
      "outputs": [
        {
          "internalType": "uint256",
          "name": "",
          "type": "uint256"
        }
      ],
      "stateMutability": "view",
      "type": "function"
    },
    {
      "inputs": [],
      "name": "baseURI",
      "outputs": [
        {
          "internalType": "string",
          "name": "",
          "type": "string"
        }
      ],
      "stateMutability": "view",
      "type": "function"
    },
    {
      "inputs": [
        {
          "internalType": "uint256",
          "name": "tokenId",
          "type": "uint256"
        }
      ],
      "name": "getApproved",
      "outputs": [
        {
          "internalType": "address",
          "name": "",
          "type": "address"
        }
      ],
      "stateMutability": "view",
      "type": "function"
    },
    {
      "inputs": [
        {
          "internalType": "address",
          "name": "owner",
          "type": "address"
        },
        {
          "internalType": "address",
          "name": "operator",
          "type": "address"
        }
      ],
      "name": "isApprovedForAll",
      "outputs": [
        {
          "internalType": "bool",
          "name": "",
          "type": "bool"
        }
      ],
      "stateMutability": "view",
      "type": "function"
    },
    {
      "inputs": [
        {
          "internalType": "address",
          "name": "mintTo",
          "type": "address"
        }
      ],
      "name": "mint",
      "outputs": [],
      "stateMutability": "nonpayable",
      "type": "function"
    },
    {
      "inputs": [],
      "name": "name",
      "outputs": [
        {
          "internalType": "string",
          "name": "",
          "type": "string"
        }
      ],
      "stateMutability": "view",
      "type": "function"
    },
    {
      "inputs": [],
      "name": "owner",
      "outputs": [
        {
          "internalType": "address",
          "name": "",
          "type": "address"
        }
      ],
      "stateMutability": "view",
      "type": "function"
    },
    {
      "inputs": [
        {
          "internalType": "uint256",
          "name": "tokenId",
          "type": "uint256"
        }
      ],
      "name": "ownerOf",
      "outputs": [
        {
          "internalType": "address",
          "name": "",
          "type": "address"
        }
      ],
      "stateMutability": "view",
      "type": "function"
    },
    {
      "inputs": [],
      "name": "renounceOwnership",
      "outputs": [],
      "stateMutability": "nonpayable",
      "type": "function"
    },
    {
      "inputs": [
        {
          "internalType": "address",
          "name": "from",
          "type": "address"
        },
        {
          "internalType": "address",
          "name": "to",
          "type": "address"
        },
        {
          "internalType": "uint256",
          "name": "tokenId",
          "type": "uint256"
        }
      ],
      "name": "safeTransferFrom",
      "outputs": [],
      "stateMutability": "nonpayable",
      "type": "function"
    },
    {
      "inputs": [
        {
          "internalType": "address",
          "name": "from",
          "type": "address"
        },
        {
          "internalType": "address",
          "name": "to",
          "type": "address"
        },
        {
          "internalType": "uint256",
          "name": "tokenId",
          "type": "uint256"
        },
        {
          "internalType": "bytes",
          "name": "_data",
          "type": "bytes"
        }
      ],
      "name": "safeTransferFrom",
      "outputs": [],
      "stateMutability": "nonpayable",
      "type": "function"
    },
    {
      "inputs": [
        {
          "internalType": "address",
          "name": "operator",
          "type": "address"
        },
        {
          "internalType": "bool",
          "name": "approved",
          "type": "bool"
        }
      ],
      "name": "setApprovalForAll",
      "outputs": [],
      "stateMutability": "nonpayable",
      "type": "function"
    },
    {
      "inputs": [
        {
          "internalType": "string",
          "name": "_uri",
          "type": "string"
        }
      ],
      "name": "setBaseURI",
      "outputs": [],
      "stateMutability": "nonpayable",
      "type": "function"
    },
    {
      "inputs": [
        {
          "internalType": "bytes4",
          "name": "interfaceId",
          "type": "bytes4"
        }
      ],
      "name": "supportsInterface",
      "outputs": [
        {
          "internalType": "bool",
          "name": "",
          "type": "bool"
        }
      ],
      "stateMutability": "view",
      "type": "function"
    },
    {
      "inputs": [],
      "name": "symbol",
      "outputs": [
        {
          "internalType": "string",
          "name": "",
          "type": "string"
        }
      ],
      "stateMutability": "view",
      "type": "function"
    },
    {
      "inputs": [
        {
          "internalType": "uint256",
          "name": "tokenId",
          "type": "uint256"
        }
      ],
      "name": "tokenURI",
      "outputs": [
        {
          "internalType": "string",
          "name": "",
          "type": "string"
        }
      ],
      "stateMutability": "view",
      "type": "function"
    },
    {
      "inputs": [],
      "name": "totalSupply",
      "outputs": [
        {
          "internalType": "uint256",
          "name": "_value",
          "type": "uint256"
        }
      ],
      "stateMutability": "view",
      "type": "function"
    },
    {
      "inputs": [
        {
          "internalType": "address",
          "name": "from",
          "type": "address"
        },
        {
          "internalType": "address",
          "name": "to",
          "type": "address"
        },
        {
          "internalType": "uint256",
          "name": "tokenId",
          "type": "uint256"
        }
      ],
      "name": "transferFrom",
      "outputs": [],
      "stateMutability": "nonpayable",
      "type": "function"
    },
    {
      "inputs": [
        {
          "internalType": "address",
          "name": "newOwner",
          "type": "address"
        }
      ],
      "name": "transferOwnership",
      "outputs": [],
      "stateMutability": "nonpayable",
      "type": "function"
    }
  ],
  "transactionHash": "0xef942dfe1ea4d46c2c19ca9cb987b822776c13377889ef36f3a6b716fb3103fd",
  "args": [
    "Test NFT",
    "TNFT"
  ],
  "numDeployments": 1,
  "solcInputHash": "c0488a39fb5c1ee23115e5ef6cc1a1e4",
  "bytecode": "0x60806040523480156200001157600080fd5b5060405162001b2538038062001b2583398101604081905262000034916200023c565b8151829082906200004d906000906020850190620000e3565b50805162000063906001906020840190620000e3565b505050620000806200007a6200008d60201b60201c565b62000091565b50506001600755620002f6565b3390565b600680546001600160a01b038381166001600160a01b0319831681179093556040519116919082907f8be0079c531659141344cd1fd0a4f28419497f9722a3daafe3b4186f6b6457e090600090a35050565b828054620000f190620002a3565b90600052602060002090601f01602090048101928262000115576000855562000160565b82601f106200013057805160ff191683800117855562000160565b8280016001018555821562000160579182015b828111156200016057825182559160200191906001019062000143565b506200016e92915062000172565b5090565b5b808211156200016e576000815560010162000173565b600082601f8301126200019a578081fd5b81516001600160401b0380821115620001b757620001b7620002e0565b604051601f8301601f19908116603f01168101908282118183101715620001e257620001e2620002e0565b81604052838152602092508683858801011115620001fe578485fd5b8491505b8382101562000221578582018301518183018401529082019062000202565b838211156200023257848385830101525b9695505050505050565b600080604083850312156200024f578182fd5b82516001600160401b038082111562000266578384fd5b620002748683870162000189565b935060208501519150808211156200028a578283fd5b50620002998582860162000189565b9150509250929050565b600181811c90821680620002b857607f821691505b60208210811415620002da57634e487b7160e01b600052602260045260246000fd5b50919050565b634e487b7160e01b600052604160045260246000fd5b61181f80620003066000396000f3fe608060405234801561001057600080fd5b506004361061012c5760003560e01c80636c0360eb116100ad578063a22cb46511610071578063a22cb46514610261578063b88d4fde14610274578063c87b56dd14610287578063e985e9c51461029a578063f2fde38b146102d657600080fd5b80636c0360eb1461022557806370a082311461022d578063715018a6146102405780638da5cb5b1461024857806395d89b411461025957600080fd5b806323b872dd116100f457806323b872dd146101c657806342842e0e146101d957806355f804b3146101ec5780636352211e146101ff5780636a6278421461021257600080fd5b806301ffc9a71461013157806306fdde0314610159578063081812fc1461016e578063095ea7b31461019957806318160ddd146101ae575b600080fd5b61014461013f366004611478565b6102e9565b60405190151581526020015b60405180910390f35b61016161033b565b60405161015091906115cd565b61018161017c36600461151d565b6103cd565b6040516001600160a01b039091168152602001610150565b6101ac6101a736600461144f565b610467565b005b6009546101b89081565b604051908152602001610150565b6101ac6101d4366004611305565b61057d565b6101ac6101e7366004611305565b6105ae565b6101ac6101fa3660046114b0565b6105c9565b61018161020d36600461151d565b6105ff565b6101ac6102203660046112b9565b610676565b610161610720565b6101b861023b3660046112b9565b6107ae565b6101ac610835565b6006546001600160a01b0316610181565b61016161086b565b6101ac61026f366004611415565b61087a565b6101ac610282366004611340565b610889565b61016161029536600461151d565b6108c1565b6101446102a83660046112d3565b6001600160a01b03918216600090815260056020908152604080832093909416825291909152205460ff1690565b6101ac6102e43660046112b9565b61099c565b60006001600160e01b031982166380ac58cd60e01b148061031a57506001600160e01b03198216635b5e139f60e01b145b8061033557506301ffc9a760e01b6001600160e01b03198316145b92915050565b60606000805461034a90611727565b80601f016020809104026020016040519081016040528092919081815260200182805461037690611727565b80156103c35780601f10610398576101008083540402835291602001916103c3565b820191906000526020600020905b8154815290600101906020018083116103a657829003601f168201915b5050505050905090565b6000818152600260205260408120546001600160a01b031661044b5760405162461bcd60e51b815260206004820152602c60248201527f4552433732313a20617070726f76656420717565727920666f72206e6f6e657860448201526b34b9ba32b73a103a37b5b2b760a11b60648201526084015b60405180910390fd5b506000908152600460205260409020546001600160a01b031690565b6000610472826105ff565b9050806001600160a01b0316836001600160a01b031614156104e05760405162461bcd60e51b815260206004820152602160248201527f4552433732313a20617070726f76616c20746f2063757272656e74206f776e656044820152603960f91b6064820152608401610442565b336001600160a01b03821614806104fc57506104fc81336102a8565b61056e5760405162461bcd60e51b815260206004820152603860248201527f4552433732313a20617070726f76652063616c6c6572206973206e6f74206f7760448201527f6e6572206e6f7220617070726f76656420666f7220616c6c00000000000000006064820152608401610442565b6105788383610a37565b505050565b6105873382610aa5565b6105a35760405162461bcd60e51b815260040161044290611667565b610578838383610b9c565b61057883838360405180602001604052806000815250610889565b6006546001600160a01b031633146105f35760405162461bcd60e51b815260040161044290611632565b61057860088383611204565b6000818152600260205260408120546001600160a01b0316806103355760405162461bcd60e51b815260206004820152602960248201527f4552433732313a206f776e657220717565727920666f72206e6f6e657869737460448201526832b73a103a37b5b2b760b91b6064820152608401610442565b6006546001600160a01b031633146106a05760405162461bcd60e51b815260040161044290611632565b600260075414156106f35760405162461bcd60e51b815260206004820152601f60248201527f5265656e7472616e637947756172643a207265656e7472616e742063616c6c006044820152606401610442565b6002600755610706600980546001019055565b6107188161071360095490565b610d38565b506001600755565b6008805461072d90611727565b80601f016020809104026020016040519081016040528092919081815260200182805461075990611727565b80156107a65780601f1061077b576101008083540402835291602001916107a6565b820191906000526020600020905b81548152906001019060200180831161078957829003601f168201915b505050505081565b60006001600160a01b0382166108195760405162461bcd60e51b815260206004820152602a60248201527f4552433732313a2062616c616e636520717565727920666f7220746865207a65604482015269726f206164647265737360b01b6064820152608401610442565b506001600160a01b031660009081526003602052604090205490565b6006546001600160a01b0316331461085f5760405162461bcd60e51b815260040161044290611632565b6108696000610e7a565b565b60606001805461034a90611727565b610885338383610ecc565b5050565b6108933383610aa5565b6108af5760405162461bcd60e51b815260040161044290611667565b6108bb84848484610f9b565b50505050565b6000818152600260205260409020546060906001600160a01b03166109405760405162461bcd60e51b815260206004820152602f60248201527f4552433732314d657461646174613a2055524920717565727920666f72206e6f60448201526e3732bc34b9ba32b73a103a37b5b2b760891b6064820152608401610442565b600061094a610fce565b9050600081511161096a5760405180602001604052806000815250610995565b8061097484610fdd565b604051602001610985929190611561565b6040516020818303038152906040525b9392505050565b6006546001600160a01b031633146109c65760405162461bcd60e51b815260040161044290611632565b6001600160a01b038116610a2b5760405162461bcd60e51b815260206004820152602660248201527f4f776e61626c653a206e6577206f776e657220697320746865207a65726f206160448201526564647265737360d01b6064820152608401610442565b610a3481610e7a565b50565b600081815260046020526040902080546001600160a01b0319166001600160a01b0384169081179091558190610a6c826105ff565b6001600160a01b03167f8c5be1e5ebec7d5bd14f71427d1e84f3dd0314c0f7b2291e5b200ac8c7c3b92560405160405180910390a45050565b6000818152600260205260408120546001600160a01b0316610b1e5760405162461bcd60e51b815260206004820152602c60248201527f4552433732313a206f70657261746f7220717565727920666f72206e6f6e657860448201526b34b9ba32b73a103a37b5b2b760a11b6064820152608401610442565b6000610b29836105ff565b9050806001600160a01b0316846001600160a01b03161480610b645750836001600160a01b0316610b59846103cd565b6001600160a01b0316145b80610b9457506001600160a01b0380821660009081526005602090815260408083209388168352929052205460ff165b949350505050565b826001600160a01b0316610baf826105ff565b6001600160a01b031614610c135760405162461bcd60e51b815260206004820152602560248201527f4552433732313a207472616e736665722066726f6d20696e636f72726563742060448201526437bbb732b960d91b6064820152608401610442565b6001600160a01b038216610c755760405162461bcd60e51b8152602060048201526024808201527f4552433732313a207472616e7366657220746f20746865207a65726f206164646044820152637265737360e01b6064820152608401610442565b610c80600082610a37565b6001600160a01b0383166000908152600360205260408120805460019290610ca99084906116e4565b90915550506001600160a01b0382166000908152600360205260408120805460019290610cd79084906116b8565b909155505060008181526002602052604080822080546001600160a01b0319166001600160a01b0386811691821790925591518493918716917fddf252ad1be2c89b69c2b068fc378daa952ba7f163c4a11628f55a4df523b3ef91a4505050565b6001600160a01b038216610d8e5760405162461bcd60e51b815260206004820181905260248201527f4552433732313a206d696e7420746f20746865207a65726f20616464726573736044820152606401610442565b6000818152600260205260409020546001600160a01b031615610df35760405162461bcd60e51b815260206004820152601c60248201527f4552433732313a20746f6b656e20616c7265616479206d696e746564000000006044820152606401610442565b6001600160a01b0382166000908152600360205260408120805460019290610e1c9084906116b8565b909155505060008181526002602052604080822080546001600160a01b0319166001600160a01b03861690811790915590518392907fddf252ad1be2c89b69c2b068fc378daa952ba7f163c4a11628f55a4df523b3ef908290a45050565b600680546001600160a01b038381166001600160a01b0319831681179093556040519116919082907f8be0079c531659141344cd1fd0a4f28419497f9722a3daafe3b4186f6b6457e090600090a35050565b816001600160a01b0316836001600160a01b03161415610f2e5760405162461bcd60e51b815260206004820152601960248201527f4552433732313a20617070726f766520746f2063616c6c6572000000000000006044820152606401610442565b6001600160a01b03838116600081815260056020908152604080832094871680845294825291829020805460ff191686151590811790915591519182527f17307eab39ab6107e8899845ad3d59bd9653f200f220920489ca2b5937696c31910160405180910390a3505050565b610fa6848484610b9c565b610fb2848484846110f7565b6108bb5760405162461bcd60e51b8152600401610442906115e0565b60606008805461034a90611727565b6060816110015750506040805180820190915260018152600360fc1b602082015290565b8160005b811561102b578061101581611762565b91506110249050600a836116d0565b9150611005565b60008167ffffffffffffffff81111561105457634e487b7160e01b600052604160045260246000fd5b6040519080825280601f01601f19166020018201604052801561107e576020820181803683370190505b5090505b8415610b94576110936001836116e4565b91506110a0600a8661177d565b6110ab9060306116b8565b60f81b8183815181106110ce57634e487b7160e01b600052603260045260246000fd5b60200101906001600160f81b031916908160001a9053506110f0600a866116d0565b9450611082565b60006001600160a01b0384163b156111f957604051630a85bd0160e11b81526001600160a01b0385169063150b7a029061113b903390899088908890600401611590565b602060405180830381600087803b15801561115557600080fd5b505af1925050508015611185575060408051601f3d908101601f1916820190925261118291810190611494565b60015b6111df573d8080156111b3576040519150601f19603f3d011682016040523d82523d6000602084013e6111b8565b606091505b5080516111d75760405162461bcd60e51b8152600401610442906115e0565b805181602001fd5b6001600160e01b031916630a85bd0160e11b149050610b94565b506001949350505050565b82805461121090611727565b90600052602060002090601f0160209004810192826112325760008555611278565b82601f1061124b5782800160ff19823516178555611278565b82800160010185558215611278579182015b8281111561127857823582559160200191906001019061125d565b50611284929150611288565b5090565b5b808211156112845760008155600101611289565b80356001600160a01b03811681146112b457600080fd5b919050565b6000602082840312156112ca578081fd5b6109958261129d565b600080604083850312156112e5578081fd5b6112ee8361129d565b91506112fc6020840161129d565b90509250929050565b600080600060608486031215611319578081fd5b6113228461129d565b92506113306020850161129d565b9150604084013590509250925092565b60008060008060808587031215611355578081fd5b61135e8561129d565b935061136c6020860161129d565b925060408501359150606085013567ffffffffffffffff8082111561138f578283fd5b818701915087601f8301126113a2578283fd5b8135818111156113b4576113b46117bd565b604051601f8201601f19908116603f011681019083821181831017156113dc576113dc6117bd565b816040528281528a60208487010111156113f4578586fd5b82602086016020830137918201602001949094529598949750929550505050565b60008060408385031215611427578182fd5b6114308361129d565b915060208301358015158114611444578182fd5b809150509250929050565b60008060408385031215611461578182fd5b61146a8361129d565b946020939093013593505050565b600060208284031215611489578081fd5b8135610995816117d3565b6000602082840312156114a5578081fd5b8151610995816117d3565b600080602083850312156114c2578182fd5b823567ffffffffffffffff808211156114d9578384fd5b818501915085601f8301126114ec578384fd5b8135818111156114fa578485fd5b86602082850101111561150b578485fd5b60209290920196919550909350505050565b60006020828403121561152e578081fd5b5035919050565b6000815180845261154d8160208601602086016116fb565b601f01601f19169290920160200192915050565b600083516115738184602088016116fb565b8351908301906115878183602088016116fb565b01949350505050565b6001600160a01b03858116825284166020820152604081018390526080606082018190526000906115c390830184611535565b9695505050505050565b6020815260006109956020830184611535565b60208082526032908201527f4552433732313a207472616e7366657220746f206e6f6e20455243373231526560408201527131b2b4bb32b91034b6b83632b6b2b73a32b960711b606082015260800190565b6020808252818101527f4f776e61626c653a2063616c6c6572206973206e6f7420746865206f776e6572604082015260600190565b60208082526031908201527f4552433732313a207472616e736665722063616c6c6572206973206e6f74206f6040820152701ddb995c881b9bdc88185c1c1c9bdd9959607a1b606082015260800190565b600082198211156116cb576116cb611791565b500190565b6000826116df576116df6117a7565b500490565b6000828210156116f6576116f6611791565b500390565b60005b838110156117165781810151838201526020016116fe565b838111156108bb5750506000910152565b600181811c9082168061173b57607f821691505b6020821081141561175c57634e487b7160e01b600052602260045260246000fd5b50919050565b600060001982141561177657611776611791565b5060010190565b60008261178c5761178c6117a7565b500690565b634e487b7160e01b600052601160045260246000fd5b634e487b7160e01b600052601260045260246000fd5b634e487b7160e01b600052604160045260246000fd5b6001600160e01b031981168114610a3457600080fdfea26469706673582212201d2dc4145b00480e576e62763bec3cda58fa62060d5ead087a96ce9938f82e7164736f6c63430008040033",
  "devdoc": {
    "kind": "dev",
    "methods": {
      "approve(address,uint256)": {
        "details": "See {IERC721-approve}."
      },
      "balanceOf(address)": {
        "details": "See {IERC721-balanceOf}."
      },
      "getApproved(uint256)": {
        "details": "See {IERC721-getApproved}."
      },
      "isApprovedForAll(address,address)": {
        "details": "See {IERC721-isApprovedForAll}."
      },
      "name()": {
        "details": "See {IERC721Metadata-name}."
      },
      "owner()": {
        "details": "Returns the address of the current owner."
      },
      "ownerOf(uint256)": {
        "details": "See {IERC721-ownerOf}."
      },
      "renounceOwnership()": {
        "details": "Leaves the contract without owner. It will not be possible to call `onlyOwner` functions anymore. Can only be called by the current owner. NOTE: Renouncing ownership will leave the contract without an owner, thereby removing any functionality that is only available to the owner."
      },
      "safeTransferFrom(address,address,uint256)": {
        "details": "See {IERC721-safeTransferFrom}."
      },
      "safeTransferFrom(address,address,uint256,bytes)": {
        "details": "See {IERC721-safeTransferFrom}."
      },
      "setApprovalForAll(address,bool)": {
        "details": "See {IERC721-setApprovalForAll}."
      },
      "supportsInterface(bytes4)": {
        "details": "See {IERC165-supportsInterface}."
      },
      "symbol()": {
        "details": "See {IERC721Metadata-symbol}."
      },
      "tokenURI(uint256)": {
        "details": "See {IERC721Metadata-tokenURI}."
      },
      "transferFrom(address,address,uint256)": {
        "details": "See {IERC721-transferFrom}."
      },
      "transferOwnership(address)": {
        "details": "Transfers ownership of the contract to a new account (`newOwner`). Can only be called by the current owner."
      }
    },
    "version": 1
  },
  "userdoc": {
    "kind": "user",
    "methods": {},
    "version": 1
  },
  "storageLayout": {
    "storage": [
      {
        "astId": 170,
        "contract": "contracts/NFT/NFT.sol:NFT",
        "label": "_name",
        "offset": 0,
        "slot": "0",
        "type": "t_string_storage"
      },
      {
        "astId": 172,
        "contract": "contracts/NFT/NFT.sol:NFT",
        "label": "_symbol",
        "offset": 0,
        "slot": "1",
        "type": "t_string_storage"
      },
      {
        "astId": 176,
        "contract": "contracts/NFT/NFT.sol:NFT",
        "label": "_owners",
        "offset": 0,
        "slot": "2",
        "type": "t_mapping(t_uint256,t_address)"
      },
      {
        "astId": 180,
        "contract": "contracts/NFT/NFT.sol:NFT",
        "label": "_balances",
        "offset": 0,
        "slot": "3",
        "type": "t_mapping(t_address,t_uint256)"
      },
      {
        "astId": 184,
        "contract": "contracts/NFT/NFT.sol:NFT",
        "label": "_tokenApprovals",
        "offset": 0,
        "slot": "4",
        "type": "t_mapping(t_uint256,t_address)"
      },
      {
        "astId": 190,
        "contract": "contracts/NFT/NFT.sol:NFT",
        "label": "_operatorApprovals",
        "offset": 0,
        "slot": "5",
        "type": "t_mapping(t_address,t_mapping(t_address,t_bool))"
      },
      {
        "astId": 7,
        "contract": "contracts/NFT/NFT.sol:NFT",
        "label": "_owner",
        "offset": 0,
        "slot": "6",
        "type": "t_address"
      },
      {
        "astId": 115,
        "contract": "contracts/NFT/NFT.sol:NFT",
        "label": "_status",
        "offset": 0,
        "slot": "7",
        "type": "t_uint256"
      },
      {
        "astId": 1819,
        "contract": "contracts/NFT/NFT.sol:NFT",
        "label": "baseURI",
        "offset": 0,
        "slot": "8",
        "type": "t_string_storage"
      },
      {
        "astId": 1822,
        "contract": "contracts/NFT/NFT.sol:NFT",
        "label": "totalSupply",
        "offset": 0,
        "slot": "9",
        "type": "t_struct(Counter)1494_storage"
      }
    ],
    "types": {
      "t_address": {
        "encoding": "inplace",
        "label": "address",
        "numberOfBytes": "20"
      },
      "t_bool": {
        "encoding": "inplace",
        "label": "bool",
        "numberOfBytes": "1"
      },
      "t_mapping(t_address,t_bool)": {
        "encoding": "mapping",
        "key": "t_address",
        "label": "mapping(address => bool)",
        "numberOfBytes": "32",
        "value": "t_bool"
      },
      "t_mapping(t_address,t_mapping(t_address,t_bool))": {
        "encoding": "mapping",
        "key": "t_address",
        "label": "mapping(address => mapping(address => bool))",
        "numberOfBytes": "32",
        "value": "t_mapping(t_address,t_bool)"
      },
      "t_mapping(t_address,t_uint256)": {
        "encoding": "mapping",
        "key": "t_address",
        "label": "mapping(address => uint256)",
        "numberOfBytes": "32",
        "value": "t_uint256"
      },
      "t_mapping(t_uint256,t_address)": {
        "encoding": "mapping",
        "key": "t_uint256",
        "label": "mapping(uint256 => address)",
        "numberOfBytes": "32",
        "value": "t_address"
      },
      "t_string_storage": {
        "encoding": "bytes",
        "label": "string",
        "numberOfBytes": "32"
      },
      "t_struct(Counter)1494_storage": {
        "encoding": "inplace",
        "label": "struct Counters.Counter",
        "members": [
          {
            "astId": 1493,
            "contract": "contracts/NFT/NFT.sol:NFT",
            "label": "_value",
            "offset": 0,
            "slot": "0",
            "type": "t_uint256"
          }
        ],
        "numberOfBytes": "32"
      },
      "t_uint256": {
        "encoding": "inplace",
        "label": "uint256",
        "numberOfBytes": "32"
      }
    }
  }
}